:0300000002087B78
:0C087B00787FE4F6D8FD7581090208675B
:100867001208517F4F1208877F4B1208877F0D129E
:04087700088780FE70
:10085100758920759850758DFD858D8BE4F587D24E
:06086100AFD2ACD28E22E2
:080887008F993099FDC29922FE
:03002300020800D0
:10080000C0E0C0D075D000C000C00730983AE5996C
:0B081000D3942F4022E599943A501C2D
:10081B00AF99EF24D0F509E434FFF508AF09740163
:0C082B00A807088002C333D8FCF4F58055
:100837007F0D120887AF991208877F0D120887C2AC
:0A08470098D007D000D0D0D0E032E6
:00000001FF
